{
  "_format": "hh-sol-artifact-1",
  "contractName": "FlashLoanArbitrage",
  "sourceName": "contracts/FlashLoanArbitrage.sol",
  "abi": [
    {
      "inputs": [],
      "stateMutability": "nonpayable",
      "type": "constructor"
    },
    {
      "inputs": [],
      "name": "EnforcedPause",
      "type": "error"
    },
    {
      "inputs": [],
      "name": "ExpectedPause",
      "type": "error"
    },
    {
      "inputs": [
        {
          "internalType": "address",
          "name": "owner",
          "type": "address"
        }
      ],
      "name": "OwnableInvalidOwner",
      "type": "error"
    },
    {
      "inputs": [
        {
          "internalType": "address",
          "name": "account",
          "type": "address"
        }
      ],
      "name": "OwnableUnauthorizedAccount",
      "type": "error"
    },
    {
      "inputs": [],
      "name": "ReentrancyGuardReentrantCall",
      "type": "error"
    },
    {
      "inputs": [
        {
          "internalType": "address",
          "name": "token",
          "type": "address"
        }
      ],
      "name": "SafeERC20FailedOperation",
      "type": "error"
    },
    {
      "anonymous": false,
      "inputs": [
        {
          "indexed": true,
          "internalType": "address",
          "name": "token",
          "type": "address"
        },
        {
          "indexed": false,
          "internalType": "uint256",
          "name": "amount",
          "type": "uint256"
        },
        {
          "indexed": false,
          "internalType": "uint256",
          "name": "profit",
          "type": "uint256"
        },
        {
          "indexed": false,
          "internalType": "uint256",
          "name": "gasUsed",
          "type": "uint256"
        },
        {
          "indexed": false,
          "internalType": "uint256",
          "name": "timestamp",
          "type": "uint256"
        }
      ],
      "name": "ArbitrageExecuted",
      "type": "event"
    },
    {
      "anonymous": false,
      "inputs": [
        {
          "indexed": false,
          "internalType": "bool",
          "name": "stopped",
          "type": "bool"
        }
      ],
      "name": "EmergencyStopToggled",
      "type": "event"
    },
    {
      "anonymous": false,
      "inputs": [
        {
          "indexed": true,
          "internalType": "address",
          "name": "token",
          "type": "address"
        },
        {
          "indexed": false,
          "internalType": "uint256",
          "name": "amount",
          "type": "uint256"
        },
        {
          "indexed": false,
          "internalType": "uint256",
          "name": "timestamp",
          "type": "uint256"
        }
      ],
      "name": "FlashLoanRequested",
      "type": "event"
    },
    {
      "anonymous": false,
      "inputs": [
        {
          "indexed": true,
          "internalType": "address",
          "name": "previousOwner",
          "type": "address"
        },
        {
          "indexed": true,
          "internalType": "address",
          "name": "newOwner",
          "type": "address"
        }
      ],
      "name": "OwnershipTransferred",
      "type": "event"
    },
    {
      "anonymous": false,
      "inputs": [
        {
          "indexed": false,
          "internalType": "address",
          "name": "account",
          "type": "address"
        }
      ],
      "name": "Paused",
      "type": "event"
    },
    {
      "anonymous": false,
      "inputs": [
        {
          "indexed": false,
          "internalType": "uint256",
          "name": "oldThreshold",
          "type": "uint256"
        },
        {
          "indexed": false,
          "internalType": "uint256",
          "name": "newThreshold",
          "type": "uint256"
        }
      ],
      "name": "ProfitThresholdUpdated",
      "type": "event"
    },
    {
      "anonymous": false,
      "inputs": [
        {
          "indexed": false,
          "internalType": "uint256",
          "name": "oldSlippage",
          "type": "uint256"
        },
        {
          "indexed": false,
          "internalType": "uint256",
          "name": "newSlippage",
          "type": "uint256"
        }
      ],
      "name": "SlippageUpdated",
      "type": "event"
    },
    {
      "anonymous": false,
      "inputs": [
        {
          "indexed": false,
          "internalType": "address",
          "name": "account",
          "type": "address"
        }
      ],
      "name": "Unpaused",
      "type": "event"
    },
    {
      "inputs": [],
      "name": "DAI",
      "outputs": [
        {
          "internalType": "address",
          "name": "",
          "type": "address"
        }
      ],
      "stateMutability": "view",
      "type": "function"
    },
    {
      "inputs": [],
      "name": "SUSHISWAP_V2_ROUTER",
      "outputs": [
        {
          "internalType": "address",
          "name": "",
          "type": "address"
        }
      ],
      "stateMutability": "view",
      "type": "function"
    },
    {
      "inputs": [],
      "name": "UNISWAP_V3_ROUTER",
      "outputs": [
        {
          "internalType": "address",
          "name": "",
          "type": "address"
        }
      ],
      "stateMutability": "view",
      "type": "function"
    },
    {
      "inputs": [],
      "name": "USDC",
      "outputs": [
        {
          "internalType": "address",
          "name": "",
          "type": "address"
        }
      ],
      "stateMutability": "view",
      "type": "function"
    },
    {
      "inputs": [],
      "name": "WETH",
      "outputs": [
        {
          "internalType": "address",
          "name": "",
          "type": "address"
        }
      ],
      "stateMutability": "view",
      "type": "function"
    },
    {
      "inputs": [],
      "name": "emergencyStop",
      "outputs": [
        {
          "internalType": "bool",
          "name": "",
          "type": "bool"
        }
      ],
      "stateMutability": "view",
      "type": "function"
    },
    {
      "inputs": [
        {
          "internalType": "address",
          "name": "token",
          "type": "address"
        },
        {
          "internalType": "uint256",
          "name": "amount",
          "type": "uint256"
        },
        {
          "internalType": "uint256",
          "name": "minProfit",
          "type": "uint256"
        }
      ],
      "name": "executeArbitrage",
      "outputs": [],
      "stateMutability": "nonpayable",
      "type": "function"
    },
    {
      "inputs": [],
      "name": "getETHBalance",
      "outputs": [
        {
          "internalType": "uint256",
          "name": "",
          "type": "uint256"
        }
      ],
      "stateMutability": "view",
      "type": "function"
    },
    {
      "inputs": [
        {
          "internalType": "address",
          "name": "token",
          "type": "address"
        }
      ],
      "name": "getTokenBalance",
      "outputs": [
        {
          "internalType": "uint256",
          "name": "",
          "type": "uint256"
        }
      ],
      "stateMutability": "view",
      "type": "function"
    },
    {
      "inputs": [],
      "name": "maxSlippage",
      "outputs": [
        {
          "internalType": "uint256",
          "name": "",
          "type": "uint256"
        }
      ],
      "stateMutability": "view",
      "type": "function"
    },
    {
      "inputs": [],
      "name": "minProfitThreshold",
      "outputs": [
        {
          "internalType": "uint256",
          "name": "",
          "type": "uint256"
        }
      ],
      "stateMutability": "view",
      "type": "function"
    },
    {
      "inputs": [],
      "name": "owner",
      "outputs": [
        {
          "internalType": "address",
          "name": "",
          "type": "address"
        }
      ],
      "stateMutability": "view",
      "type": "function"
    },
    {
      "inputs": [],
      "name": "pause",
      "outputs": [],
      "stateMutability": "nonpayable",
      "type": "function"
    },
    {
      "inputs": [],
      "name": "paused",
      "outputs": [
        {
          "internalType": "bool",
          "name": "",
          "type": "bool"
        }
      ],
      "stateMutability": "view",
      "type": "function"
    },
    {
      "inputs": [],
      "name": "renounceOwnership",
      "outputs": [],
      "stateMutability": "nonpayable",
      "type": "function"
    },
    {
      "inputs": [
        {
          "internalType": "address",
          "name": "_token",
          "type": "address"
        },
        {
          "internalType": "uint256",
          "name": "_amount",
          "type": "uint256"
        }
      ],
      "name": "requestFlashLoan",
      "outputs": [],
      "stateMutability": "nonpayable",
      "type": "function"
    },
    {
      "inputs": [
        {
          "internalType": "uint256",
          "name": "_newThreshold",
          "type": "uint256"
        }
      ],
      "name": "setProfitThreshold",
      "outputs": [],
      "stateMutability": "nonpayable",
      "type": "function"
    },
    {
      "inputs": [
        {
          "internalType": "uint256",
          "name": "_newSlippage",
          "type": "uint256"
        }
      ],
      "name": "setSlippage",
      "outputs": [],
      "stateMutability": "nonpayable",
      "type": "function"
    },
    {
      "inputs": [],
      "name": "toggleEmergencyStop",
      "outputs": [],
      "stateMutability": "nonpayable",
      "type": "function"
    },
    {
      "inputs": [
        {
          "internalType": "address",
          "name": "newOwner",
          "type": "address"
        }
      ],
      "name": "transferOwnership",
      "outputs": [],
      "stateMutability": "nonpayable",
      "type": "function"
    },
    {
      "inputs": [],
      "name": "unpause",
      "outputs": [],
      "stateMutability": "nonpayable",
      "type": "function"
    },
    {
      "inputs": [],
      "name": "withdrawETH",
      "outputs": [],
      "stateMutability": "nonpayable",
      "type": "function"
    },
    {
      "inputs": [
        {
          "internalType": "address",
          "name": "token",
          "type": "address"
        },
        {
          "internalType": "uint256",
          "name": "amount",
          "type": "uint256"
        }
      ],
      "name": "withdrawToken",
      "outputs": [],
      "stateMutability": "nonpayable",
      "type": "function"
    },
    {
      "stateMutability": "payable",
      "type": "receive"
    }
  ],
  "bytecode": "0x6080604052624c4b4060075560326008556000600960006101000a81548160ff0219169083151502179055503480156200003857600080fd5b5033600073ffffffffffffffffffffffffffffffffffffffff168173ffffffffffffffffffffffffffffffffffffffff1603620000af5760006040517f1e4fbdf7000000000000000000000000000000000000000000000000000000008152600401620000a69190620006f4565b60405180910390fd5b620000c081620005eb60201b60201c565b506001808190555061210546036200028157732626664c2603336e57b271c5c0b26f421741e8ee600260016101000a81548173ffffffffffffffffffffffffffffffffffffffff021916908373ffffffffffffffffffffffffffffffffffffffff160217905550736e086abe2ecb3f660b15fb3a3ef0028be6a4a1e0600360006101000a81548173ffffffffffffffffffffffffffffffffffffffff021916908373ffffffffffffffffffffffffffffffffffffffff16021790555073833589fcd6edb6e08f4c7c32d4f71b54bda02913600460006101000a81548173ffffffffffffffffffffffffffffffffffffffff021916908373ffffffffffffffffffffffffffffffffffffffff1602179055507350c5725949a6f0c72e6c4a641f24049a917db0cb600560006101000a81548173ffffffffffffffffffffffffffffffffffffffff021916908373ffffffffffffffffffffffffffffffffffffffff160217905550734200000000000000000000000000000000000006600660006101000a81548173ffffffffffffffffffffffffffffffffffffffff021916908373ffffffffffffffffffffffffffffffffffffffff160217905550620005e5565b61a4b146036200043a5773e592427a0aece92de3edee1f18e0157c05861564600260016101000a81548173ffffffffffffffffffffffffffffffffffffffff021916908373ffffffffffffffffffffffffffffffffffffffff160217905550731b02da8cb0d097eb8d57a175b88c7d8b47997506600360006101000a81548173ffffffffffffffffffffffffffffffffffffffff021916908373ffffffffffffffffffffffffffffffffffffffff16021790555073af88d065e77c8cc2239327c5edb3a432268e5831600460006101000a81548173ffffffffffffffffffffffffffffffffffffffff021916908373ffffffffffffffffffffffffffffffffffffffff16021790555073da10009cbd5d07dd0cecc66161fc93d7c9000da1600560006101000a81548173ffffffffffffffffffffffffffffffffffffffff021916908373ffffffffffffffffffffffffffffffffffffffff1602179055507382af49447d8a07e3bd95bd0d56f35241523fbab1600660006101000a81548173ffffffffffffffffffffffffffffffffffffffff021916908373ffffffffffffffffffffffffffffffffffffffff160217905550620005e4565b732626664c2603336e57b271c5c0b26f421741e8ee600260016101000a81548173ffffffffffffffffffffffffffffffffffffffff021916908373ffffffffffffffffffffffffffffffffffffffff160217905550736e086abe2ecb3f660b15fb3a3ef0028be6a4a1e0600360006101000a81548173ffffffffffffffffffffffffffffffffffffffff021916908373ffffffffffffffffffffffffffffffffffffffff16021790555073833589fcd6edb6e08f4c7c32d4f71b54bda02913600460006101000a81548173ffffffffffffffffffffffffffffffffffffffff021916908373ffffffffffffffffffffffffffffffffffffffff1602179055507350c5725949a6f0c72e6c4a641f24049a917db0cb600560006101000a81548173ffffffffffffffffffffffffffffffffffffffff021916908373ffffffffffffffffffffffffffffffffffffffff160217905550734200000000000000000000000000000000000006600660006101000a81548173ffffffffffffffffffffffffffffffffffffffff021916908373ffffffffffffffffffffffffffffffffffffffff1602179055505b5b62000711565b60008060009054906101000a900473ffffffffffffffffffffffffffffffffffffffff169050816000806101000a81548173ffffffffffffffffffffffffffffffffffffffff021916908373ffffffffffffffffffffffffffffffffffffffff1602179055508173ffffffffffffffffffffffffffffffffffffffff168173ffffffffffffffffffffffffffffffffffffffff167f8be0079c531659141344cd1fd0a4f28419497f9722a3daafe3b4186f6b6457e060405160405180910390a35050565b600073ffffffffffffffffffffffffffffffffffffffff82169050919050565b6000620006dc82620006af565b9050919050565b620006ee81620006cf565b82525050565b60006020820190506200070b6000830184620006e3565b92915050565b61288180620007216000396000f3fe6080604052600436106101445760003560e01c80637341ab8c116100b6578063ad5c46481161006f578063ad5c4648146103e7578063d54ba95414610412578063e086e5ec1461043b578063e0bab4c414610452578063f0fa55a91461047d578063f2fde38b146104a65761014b565b80637341ab8c146102fb5780638456cb591461032657806389a302711461033d5780638c04166f146103685780638da5cb5b146103935780639e281a98146103be5761014b565b80634b7aac94116101085780634b7aac94146102235780635767a74f1461023a5780635c975abb1461026357806363a599a41461028e5780636e947298146102b9578063715018a6146102e45761014b565b80631635710714610150578063288211821461017b5780633aecd0e3146101a45780633f4ba83a146101e157806341c64a2f146101f85761014b565b3661014b57005b600080fd5b34801561015c57600080fd5b506101656104cf565b6040516101729190611d2b565b60405180910390f35b34801561018757600080fd5b506101a2600480360381019061019d9190611d90565b6104f5565b005b3480156101b057600080fd5b506101cb60048036038101906101c69190611de9565b610548565b6040516101d89190611e25565b60405180910390f35b3480156101ed57600080fd5b506101f66105cb565b005b34801561020457600080fd5b5061020d6105dd565b60405161021a9190611d2b565b60405180910390f35b34801561022f57600080fd5b50610238610603565b005b34801561024657600080fd5b50610261600480360381019061025c9190611e40565b61067d565b005b34801561026f57600080fd5b50610278610a09565b6040516102859190611eae565b60405180910390f35b34801561029a57600080fd5b506102a3610a20565b6040516102b09190611eae565b60405180910390f35b3480156102c557600080fd5b506102ce610a33565b6040516102db9190611e25565b60405180910390f35b3480156102f057600080fd5b506102f9610a3b565b005b34801561030757600080fd5b50610310610a4f565b60405161031d9190611e25565b60405180910390f35b34801561033257600080fd5b5061033b610a55565b005b34801561034957600080fd5b50610352610a67565b60405161035f9190611d2b565b60405180910390f35b34801561037457600080fd5b5061037d610a8d565b60405161038a9190611e25565b60405180910390f35b34801561039f57600080fd5b506103a8610a93565b6040516103b59190611d2b565b60405180910390f35b3480156103ca57600080fd5b506103e560048036038101906103e09190611ec9565b610abc565b005b3480156103f357600080fd5b506103fc610afa565b6040516104099190611d2b565b60405180910390f35b34801561041e57600080fd5b5061043960048036038101906104349190611ec9565b610b20565b005b34801561044757600080fd5b50610450610bcc565b005b34801561045e57600080fd5b50610467610c24565b6040516104749190611d2b565b60405180910390f35b34801561048957600080fd5b506104a4600480360381019061049f9190611d90565b610c4a565b005b3480156104b257600080fd5b506104cd60048036038101906104c89190611de9565b610ce2565b005b600360009054906101000a900473ffffffffffffffffffffffffffffffffffffffff1681565b6104fd610d68565b60006007549050816007819055507fe5264eaab8cf63722b22f8fb82de052944a4d0a2f87658ad4ae9ece5a881ce78818360405161053c929190611f09565b60405180910390a15050565b60008173ffffffffffffffffffffffffffffffffffffffff166370a08231306040518263ffffffff1660e01b81526004016105839190611d2b565b602060405180830381865afa1580156105a0573d6000803e3d6000fd5b505050506040513d601f19601f820116820180604052508101906105c49190611f47565b9050919050565b6105d3610d68565b6105db610def565b565b600260019054906101000a900473ffffffffffffffffffffffffffffffffffffffff1681565b61060b610d68565b600960009054906101000a900460ff1615600960006101000a81548160ff0219169083151502179055507f05b88d23d9a60b7924fccc370e1e0c1ccf49989e3b2968cafaf7db7fc13bd13f600960009054906101000a900460ff166040516106739190611eae565b60405180910390a1565b610685610d68565b600960009054906101000a900460ff16156106d5576040517f08c379a00000000000000000000000000000000000000000000000000000000081526004016106cc90611ff7565b60405180910390fd5b6106dd610e52565b6106e5610e93565b82600460009054906101000a900473ffffffffffffffffffffffffffffffffffffffff1673ffffffffffffffffffffffffffffffffffffffff168173ffffffffffffffffffffffffffffffffffffffff16148061078f5750600560009054906101000a900473ffffffffffffffffffffffffffffffffffffffff1673ffffffffffffffffffffffffffffffffffffffff168173ffffffffffffffffffffffffffffffffffffffff16145b806107e75750600660009054906101000a900473ffffffffffffffffffffffffffffffffffffffff1673ffffffffffffffffffffffffffffffffffffffff168173ffffffffffffffffffffffffffffffffffffffff16145b610826576040517f08c379a000000000000000000000000000000000000000000000000000000000815260040161081d90612063565b60405180910390fd5b60008311610869576040517f08c379a0000000000000000000000000000000000000000000000000000000008152600401610860906120cf565b60405180910390fd5b6007548210156108ae576040517f08c379a00000000000000000000000000000000000000000000000000000000081526004016108a59061213b565b60405180910390fd5b60008473ffffffffffffffffffffffffffffffffffffffff166370a08231306040518263ffffffff1660e01b81526004016108e99190611d2b565b602060405180830381865afa158015610906573d6000803e3d6000fd5b505050506040513d601f19601f8201168201806040525081019061092a9190611f47565b905060005a9050600061093d8787610ed9565b90506000838261094d919061218a565b905085811015610992576040517f08c379a00000000000000000000000000000000000000000000000000000000081526004016109899061220a565b60405180910390fd5b60005a846109a0919061218a565b90508873ffffffffffffffffffffffffffffffffffffffff167f635ba3250f563c26a1442217170c38a03b0a7ce671b624cfcbe68e8e9a69e5c8898484426040516109ee949392919061222a565b60405180910390a2505050505050610a04610fe6565b505050565b6000600260009054906101000a900460ff16905090565b600960009054906101000a900460ff1681565b600047905090565b610a43610d68565b610a4d6000610fef565b565b60075481565b610a5d610d68565b610a656110b3565b565b600460009054906101000a900473ffffffffffffffffffffffffffffffffffffffff1681565b60085481565b60008060009054906101000a900473ffffffffffffffffffffffffffffffffffffffff16905090565b610ac4610d68565b610af6610acf610a93565b828473ffffffffffffffffffffffffffffffffffffffff166111169092919063ffffffff16565b5050565b600660009054906101000a900473ffffffffffffffffffffffffffffffffffffffff1681565b610b28610d68565b600960009054906101000a900460ff1615610b78576040517f08c379a0000000000000000000000000000000000000000000000000000000008152600401610b6f90611ff7565b60405180910390fd5b8173ffffffffffffffffffffffffffffffffffffffff167fc48735e5b6d21173f68f0448f63f500e7a8e90032211e74e856ffdd22049d6f38242604051610bc0929190611f09565b60405180910390a25050565b610bd4610d68565b610bdc610a93565b73ffffffffffffffffffffffffffffffffffffffff166108fc479081150290604051600060405180830381858888f19350505050158015610c21573d6000803e3d6000fd5b50565b600560009054906101000a900473ffffffffffffffffffffffffffffffffffffffff1681565b610c52610d68565b6103e8811115610c97576040517f08c379a0000000000000000000000000000000000000000000000000000000008152600401610c8e906122bb565b60405180910390fd5b60006008549050816008819055507f07af09e2b23ebab5dd29fa2271d6ca4795031f308caf26ca605f4a719ffeed618183604051610cd6929190611f09565b60405180910390a15050565b610cea610d68565b600073ffffffffffffffffffffffffffffffffffffffff168173ffffffffffffffffffffffffffffffffffffffff1603610d5c5760006040517f1e4fbdf7000000000000000000000000000000000000000000000000000000008152600401610d539190611d2b565b60405180910390fd5b610d6581610fef565b50565b610d70611195565b73ffffffffffffffffffffffffffffffffffffffff16610d8e610a93565b73ffffffffffffffffffffffffffffffffffffffff1614610ded57610db1611195565b6040517f118cdaa7000000000000000000000000000000000000000000000000000000008152600401610de49190611d2b565b60405180910390fd5b565b610df761119d565b6000600260006101000a81548160ff0219169083151502179055507f5db9ee0a495bf2e6ff9c91a7834c1ba4fdd244a5e8aa4e537bd38aeae4b073aa610e3b611195565b604051610e489190611d2b565b60405180910390a1565b610e5a610a09565b15610e91576040517fd93c066500000000000000000000000000000000000000000000000000000000815260040160405180910390fd5b565b600260015403610ecf576040517f3ee5aeb500000000000000000000000000000000000000000000000000000000815260040160405180910390fd5b6002600181905550565b6000600460009054906101000a900473ffffffffffffffffffffffffffffffffffffffff1673ffffffffffffffffffffffffffffffffffffffff168373ffffffffffffffffffffffffffffffffffffffff1603610f4057610f39826111dd565b9050610fe0565b600560009054906101000a900473ffffffffffffffffffffffffffffffffffffffff1673ffffffffffffffffffffffffffffffffffffffff168373ffffffffffffffffffffffffffffffffffffffff1603610fa557610f9e82611705565b9050610fe0565b6040517f08c379a0000000000000000000000000000000000000000000000000000000008152600401610fd79061234d565b60405180910390fd5b92915050565b60018081905550565b60008060009054906101000a900473ffffffffffffffffffffffffffffffffffffffff169050816000806101000a81548173ffffffffffffffffffffffffffffffffffffffff021916908373ffffffffffffffffffffffffffffffffffffffff1602179055508173ffffffffffffffffffffffffffffffffffffffff168173ffffffffffffffffffffffffffffffffffffffff167f8be0079c531659141344cd1fd0a4f28419497f9722a3daafe3b4186f6b6457e060405160405180910390a35050565b6110bb610e52565b6001600260006101000a81548160ff0219169083151502179055507f62e78cea01bee320cd4e420270b5ea74000d11b0c9f74754ebdbfc544b05a2586110ff611195565b60405161110c9190611d2b565b60405180910390a1565b611190838473ffffffffffffffffffffffffffffffffffffffff1663a9059cbb858560405160240161114992919061236d565b604051602081830303815290604052915060e01b6020820180517bffffffffffffffffffffffffffffffffffffffffffffffffffffffff8381831617835250505050611c48565b505050565b600033905090565b6111a5610a09565b6111db576040517f8dfc202b00000000000000000000000000000000000000000000000000000000815260040160405180910390fd5b565b6000600460009054906101000a900473ffffffffffffffffffffffffffffffffffffffff1673ffffffffffffffffffffffffffffffffffffffff1663095ea7b3600260019054906101000a900473ffffffffffffffffffffffffffffffffffffffff16846040518363ffffffff1660e01b815260040161125e92919061236d565b6020604051808303816000875af115801561127d573d6000803e3d6000fd5b505050506040513d601f19601f820116820180604052508101906112a191906123c2565b506000600260019054906101000a900473ffffffffffffffffffffffffffffffffffffffff1673ffffffffffffffffffffffffffffffffffffffff1663414bf389604051806101000160405280600460009054906101000a900473ffffffffffffffffffffffffffffffffffffffff1673ffffffffffffffffffffffffffffffffffffffff168152602001600560009054906101000a900473ffffffffffffffffffffffffffffffffffffffff1673ffffffffffffffffffffffffffffffffffffffff168152602001610bb862ffffff1681526020013073ffffffffffffffffffffffffffffffffffffffff168152602001610708426113a191906123ef565b815260200186815260200160008152602001600073ffffffffffffffffffffffffffffffffffffffff168152506040518263ffffffff1660e01b81526004016113ea9190612510565b6020604051808303816000875af1158015611409573d6000803e3d6000fd5b505050506040513d601f19601f8201168201806040525081019061142d9190611f47565b9050600560009054906101000a900473ffffffffffffffffffffffffffffffffffffffff1673ffffffffffffffffffffffffffffffffffffffff1663095ea7b3600360009054906101000a900473ffffffffffffffffffffffffffffffffffffffff16836040518363ffffffff1660e01b81526004016114ae92919061236d565b6020604051808303816000875af11580156114cd573d6000803e3d6000fd5b505050506040513d601f19601f820116820180604052508101906114f191906123c2565b506000600267ffffffffffffffff81111561150f5761150e61252c565b5b60405190808252806020026020018201604052801561153d5781602001602082028036833780820191505090505b509050600560009054906101000a900473ffffffffffffffffffffffffffffffffffffffff16816000815181106115775761157661255b565b5b602002602001019073ffffffffffffffffffffffffffffffffffffffff16908173ffffffffffffffffffffffffffffffffffffffff1681525050600460009054906101000a900473ffffffffffffffffffffffffffffffffffffffff16816001815181106115e8576115e761255b565b5b602002602001019073ffffffffffffffffffffffffffffffffffffffff16908173ffffffffffffffffffffffffffffffffffffffff16815250506000600360009054906101000a900473ffffffffffffffffffffffffffffffffffffffff1673ffffffffffffffffffffffffffffffffffffffff166338ed173984600085306107084261167591906123ef565b6040518663ffffffff1660e01b815260040161169595949392919061267e565b6000604051808303816000875af11580156116b4573d6000803e3d6000fd5b505050506040513d6000823e3d601f19601f820116820180604052508101906116dd9190612802565b9050806001815181106116f3576116f261255b565b5b60200260200101519350505050919050565b6000600560009054906101000a900473ffffffffffffffffffffffffffffffffffffffff1673ffffffffffffffffffffffffffffffffffffffff1663095ea7b3600360009054906101000a900473ffffffffffffffffffffffffffffffffffffffff16846040518363ffffffff1660e01b815260040161178692919061236d565b6020604051808303816000875af11580156117a5573d6000803e3d6000fd5b505050506040513d601f19601f820116820180604052508101906117c991906123c2565b506000600267ffffffffffffffff8111156117e7576117e661252c565b5b6040519080825280602002602001820160405280156118155781602001602082028036833780820191505090505b509050600560009054906101000a900473ffffffffffffffffffffffffffffffffffffffff168160008151811061184f5761184e61255b565b5b602002602001019073ffffffffffffffffffffffffffffffffffffffff16908173ffffffffffffffffffffffffffffffffffffffff1681525050600460009054906101000a900473ffffffffffffffffffffffffffffffffffffffff16816001815181106118c0576118bf61255b565b5b602002602001019073ffffffffffffffffffffffffffffffffffffffff16908173ffffffffffffffffffffffffffffffffffffffff16815250506000600360009054906101000a900473ffffffffffffffffffffffffffffffffffffffff1673ffffffffffffffffffffffffffffffffffffffff166338ed173985600085306107084261194d91906123ef565b6040518663ffffffff1660e01b815260040161196d95949392919061267e565b6000604051808303816000875af115801561198c573d6000803e3d6000fd5b505050506040513d6000823e3d601f19601f820116820180604052508101906119b59190612802565b9050600460009054906101000a900473ffffffffffffffffffffffffffffffffffffffff1673ffffffffffffffffffffffffffffffffffffffff1663095ea7b3600260019054906101000a900473ffffffffffffffffffffffffffffffffffffffff1683600181518110611a2c57611a2b61255b565b5b60200260200101516040518363ffffffff1660e01b8152600401611a5192919061236d565b6020604051808303816000875af1158015611a70573d6000803e3d6000fd5b505050506040513d601f19601f82011682018060405250810190611a9491906123c2565b506000600260019054906101000a900473ffffffffffffffffffffffffffffffffffffffff1673ffffffffffffffffffffffffffffffffffffffff1663414bf389604051806101000160405280600460009054906101000a900473ffffffffffffffffffffffffffffffffffffffff1673ffffffffffffffffffffffffffffffffffffffff168152602001600560009054906101000a900473ffffffffffffffffffffffffffffffffffffffff1673ffffffffffffffffffffffffffffffffffffffff168152602001610bb862ffffff1681526020013073ffffffffffffffffffffffffffffffffffffffff16815260200161070842611b9491906123ef565b815260200185600181518110611bad57611bac61255b565b5b6020026020010151815260200160008152602001600073ffffffffffffffffffffffffffffffffffffffff168152506040518263ffffffff1660e01b8152600401611bf89190612510565b6020604051808303816000875af1158015611c17573d6000803e3d6000fd5b505050506040513d601f19601f82011682018060405250810190611c3b9190611f47565b9050809350505050919050565b600080602060008451602086016000885af180611c6b576040513d6000823e3d81fd5b3d925060005191505060008214611c86576001811415611ca2565b60008473ffffffffffffffffffffffffffffffffffffffff163b145b15611ce457836040517f5274afe7000000000000000000000000000000000000000000000000000000008152600401611cdb9190611d2b565b60405180910390fd5b50505050565b600073ffffffffffffffffffffffffffffffffffffffff82169050919050565b6000611d1582611cea565b9050919050565b611d2581611d0a565b82525050565b6000602082019050611d406000830184611d1c565b92915050565b6000604051905090565b600080fd5b600080fd5b6000819050919050565b611d6d81611d5a565b8114611d7857600080fd5b50565b600081359050611d8a81611d64565b92915050565b600060208284031215611da657611da5611d50565b5b6000611db484828501611d7b565b91505092915050565b611dc681611d0a565b8114611dd157600080fd5b50565b600081359050611de381611dbd565b92915050565b600060208284031215611dff57611dfe611d50565b5b6000611e0d84828501611dd4565b91505092915050565b611e1f81611d5a565b82525050565b6000602082019050611e3a6000830184611e16565b92915050565b600080600060608486031215611e5957611e58611d50565b5b6000611e6786828701611dd4565b9350506020611e7886828701611d7b565b9250506040611e8986828701611d7b565b9150509250925092565b60008115159050919050565b611ea881611e93565b82525050565b6000602082019050611ec36000830184611e9f565b92915050565b60008060408385031215611ee057611edf611d50565b5b6000611eee85828601611dd4565b9250506020611eff85828601611d7b565b9150509250929050565b6000604082019050611f1e6000830185611e16565b611f2b6020830184611e16565b9392505050565b600081519050611f4181611d64565b92915050565b600060208284031215611f5d57611f5c611d50565b5b6000611f6b84828501611f32565b91505092915050565b600082825260208201905092915050565b7f436f6e747261637420697320696e20656d657267656e63792073746f70206d6f60008201527f6465000000000000000000000000000000000000000000000000000000000000602082015250565b6000611fe1602283611f74565b9150611fec82611f85565b604082019050919050565b6000602082019050818103600083015261201081611fd4565b9050919050565b7f556e737570706f7274656420746f6b656e000000000000000000000000000000600082015250565b600061204d601183611f74565b915061205882612017565b602082019050919050565b6000602082019050818103600083015261207c81612040565b9050919050565b7f416d6f756e74206d7573742062652067726561746572207468616e2030000000600082015250565b60006120b9601d83611f74565b91506120c482612083565b602082019050919050565b600060208201905081810360008301526120e8816120ac565b9050919050565b7f50726f6669742062656c6f77206d696e696d756d207468726573686f6c640000600082015250565b6000612125601e83611f74565b9150612130826120ef565b602082019050919050565b6000602082019050818103600083015261215481612118565b9050919050565b7f4e487b7100000000000000000000000000000000000000000000000000000000600052601160045260246000fd5b600061219582611d5a565b91506121a083611d5a565b92508282039050818111156121b8576121b761215b565b5b92915050565b7f496e73756666696369656e742070726f66697400000000000000000000000000600082015250565b60006121f4601383611f74565b91506121ff826121be565b602082019050919050565b60006020820190508181036000830152612223816121e7565b9050919050565b600060808201905061223f6000830187611e16565b61224c6020830186611e16565b6122596040830185611e16565b6122666060830184611e16565b95945050505050565b7f536c69707061676520746f6f2068696768000000000000000000000000000000600082015250565b60006122a5601183611f74565b91506122b08261226f565b602082019050919050565b600060208201905081810360008301526122d481612298565b9050919050565b7f546f6b656e206e6f7420737570706f7274656420666f7220617262697472616760008201527f6500000000000000000000000000000000000000000000000000000000000000602082015250565b6000612337602183611f74565b9150612342826122db565b604082019050919050565b600060208201905081810360008301526123668161232a565b9050919050565b60006040820190506123826000830185611d1c565b61238f6020830184611e16565b9392505050565b61239f81611e93565b81146123aa57600080fd5b50565b6000815190506123bc81612396565b92915050565b6000602082840312156123d8576123d7611d50565b5b60006123e6848285016123ad565b91505092915050565b60006123fa82611d5a565b915061240583611d5a565b925082820190508082111561241d5761241c61215b565b5b92915050565b61242c81611d0a565b82525050565b600062ffffff82169050919050565b61244a81612432565b82525050565b61245981611d5a565b82525050565b61246881611cea565b82525050565b610100820160008201516124856000850182612423565b5060208201516124986020850182612423565b5060408201516124ab6040850182612441565b5060608201516124be6060850182612423565b5060808201516124d16080850182612450565b5060a08201516124e460a0850182612450565b5060c08201516124f760c0850182612450565b5060e082015161250a60e085018261245f565b50505050565b600061010082019050612526600083018461246e565b92915050565b7f4e487b7100000000000000000000000000000000000000000000000000000000600052604160045260246000fd5b7f4e487b7100000000000000000000000000000000000000000000000000000000600052603260045260246000fd5b6000819050919050565b6000819050919050565b60006125b96125b46125af8461258a565b612594565b611d5a565b9050919050565b6125c98161259e565b82525050565b600081519050919050565b600082825260208201905092915050565b6000819050602082019050919050565b60006126078383612423565b60208301905092915050565b6000602082019050919050565b600061262b826125cf565b61263581856125da565b9350612640836125eb565b8060005b8381101561267157815161265888826125fb565b975061266383612613565b925050600181019050612644565b5085935050505092915050565b600060a0820190506126936000830188611e16565b6126a060208301876125c0565b81810360408301526126b28186612620565b90506126c16060830185611d1c565b6126ce6080830184611e16565b9695505050505050565b600080fd5b6000601f19601f8301169050919050565b6126f7826126dd565b810181811067ffffffffffffffff821117156127165761271561252c565b5b80604052505050565b6000612729611d46565b905061273582826126ee565b919050565b600067ffffffffffffffff8211156127555761275461252c565b5b602082029050602081019050919050565b600080fd5b600061277e6127798461273a565b61271f565b905080838252602082019050602084028301858111156127a1576127a0612766565b5b835b818110156127ca57806127b68882611f32565b8452602084019350506020810190506127a3565b5050509392505050565b600082601f8301126127e9576127e86126d8565b5b81516127f984826020860161276b565b91505092915050565b60006020828403121561281857612817611d50565b5b600082015167ffffffffffffffff81111561283657612835611d55565b5b612842848285016127d4565b9150509291505056fea26469706673582212209c51ecc2ba58813ecd0d8d66702f37376fc9b7fd1027b270791e4eae76e1745e64736f6c63430008140033",
  "linkReferences": {},
  "deployedLinkReferences": {}
}